{
  "_format": "hh-sol-artifact-1",
  "contractName": "Election",
  "sourceName": "contracts/votingSC.sol",
  "abi": [
    {
      "inputs": [],
      "stateMutability": "nonpayable",
      "type": "constructor"
    },
    {
      "inputs": [],
      "name": "admin",
      "outputs": [
        {
          "internalType": "address",
          "name": "",
          "type": "address"
        }
      ],
      "stateMutability": "view",
      "type": "function"
    },
    {
      "inputs": [
        {
          "internalType": "uint256",
          "name": "",
          "type": "uint256"
        }
      ],
      "name": "candidates",
      "outputs": [
        {
          "internalType": "string",
          "name": "name",
          "type": "string"
        },
        {
          "internalType": "uint256",
          "name": "voteCount",
          "type": "uint256"
        }
      ],
      "stateMutability": "view",
      "type": "function"
    },
    {
      "inputs": [
        {
          "internalType": "uint256",
          "name": "candidateIndex",
          "type": "uint256"
        }
      ],
      "name": "castVote",
      "outputs": [],
      "stateMutability": "nonpayable",
      "type": "function"
    },
    {
      "inputs": [
        {
          "internalType": "string[]",
          "name": "candidateNames",
          "type": "string[]"
        },
        {
          "internalType": "uint256",
          "name": "votingStartTime",
          "type": "uint256"
        },
        {
          "internalType": "uint256",
          "name": "votingEndTime",
          "type": "uint256"
        },
        {
          "internalType": "uint256",
          "name": "minVotes",
          "type": "uint256"
        }
      ],
      "name": "contestants",
      "outputs": [],
      "stateMutability": "nonpayable",
      "type": "function"
    },
    {
      "inputs": [],
      "name": "contestantsAdded",
      "outputs": [
        {
          "internalType": "bool",
          "name": "",
          "type": "bool"
        }
      ],
      "stateMutability": "view",
      "type": "function"
    },
    {
      "inputs": [],
      "name": "endVoting",
      "outputs": [],
      "stateMutability": "nonpayable",
      "type": "function"
    },
    {
      "inputs": [
        {
          "internalType": "uint256",
          "name": "candidateIndex",
          "type": "uint256"
        }
      ],
      "name": "getCandidate",
      "outputs": [
        {
          "internalType": "string",
          "name": "",
          "type": "string"
        },
        {
          "internalType": "uint256",
          "name": "",
          "type": "uint256"
        }
      ],
      "stateMutability": "view",
      "type": "function"
    },
    {
      "inputs": [],
      "name": "getCandidatesLength",
      "outputs": [
        {
          "internalType": "uint256",
          "name": "",
          "type": "uint256"
        }
      ],
      "stateMutability": "view",
      "type": "function"
    },
    {
      "inputs": [],
      "name": "getRegisteredVoters",
      "outputs": [
        {
          "internalType": "address[]",
          "name": "",
          "type": "address[]"
        }
      ],
      "stateMutability": "view",
      "type": "function"
    },
    {
      "inputs": [],
      "name": "getTotalVotes",
      "outputs": [
        {
          "internalType": "uint256",
          "name": "",
          "type": "uint256"
        }
      ],
      "stateMutability": "view",
      "type": "function"
    },
    {
      "inputs": [
        {
          "internalType": "address",
          "name": "voter",
          "type": "address"
        }
      ],
      "name": "getVotedFor",
      "outputs": [
        {
          "internalType": "uint256",
          "name": "",
          "type": "uint256"
        }
      ],
      "stateMutability": "view",
      "type": "function"
    },
    {
      "inputs": [
        {
          "internalType": "address",
          "name": "voter",
          "type": "address"
        }
      ],
      "name": "getVoterHasVoted",
      "outputs": [
        {
          "internalType": "bool",
          "name": "",
          "type": "bool"
        }
      ],
      "stateMutability": "view",
      "type": "function"
    },
    {
      "inputs": [],
      "name": "getVotingEnd",
      "outputs": [
        {
          "internalType": "uint256",
          "name": "",
          "type": "uint256"
        }
      ],
      "stateMutability": "view",
      "type": "function"
    },
    {
      "inputs": [],
      "name": "getVotingStart",
      "outputs": [
        {
          "internalType": "uint256",
          "name": "",
          "type": "uint256"
        }
      ],
      "stateMutability": "view",
      "type": "function"
    },
    {
      "inputs": [],
      "name": "getWinner",
      "outputs": [
        {
          "internalType": "string",
          "name": "",
          "type": "string"
        }
      ],
      "stateMutability": "view",
      "type": "function"
    },
    {
      "inputs": [],
      "name": "isVotingOpen",
      "outputs": [
        {
          "internalType": "bool",
          "name": "",
          "type": "bool"
        }
      ],
      "stateMutability": "view",
      "type": "function"
    },
    {
      "inputs": [],
      "name": "listingPrice",
      "outputs": [
        {
          "internalType": "uint256",
          "name": "",
          "type": "uint256"
        }
      ],
      "stateMutability": "view",
      "type": "function"
    },
    {
      "inputs": [],
      "name": "minimumVotes",
      "outputs": [
        {
          "internalType": "uint256",
          "name": "",
          "type": "uint256"
        }
      ],
      "stateMutability": "view",
      "type": "function"
    },
    {
      "inputs": [],
      "name": "registerVoter",
      "outputs": [],
      "stateMutability": "nonpayable",
      "type": "function"
    },
    {
      "inputs": [],
      "name": "timestamp",
      "outputs": [
        {
          "internalType": "uint256",
          "name": "",
          "type": "uint256"
        }
      ],
      "stateMutability": "view",
      "type": "function"
    },
    {
      "inputs": [],
      "name": "totalVotes",
      "outputs": [
        {
          "internalType": "uint256",
          "name": "",
          "type": "uint256"
        }
      ],
      "stateMutability": "view",
      "type": "function"
    },
    {
      "inputs": [
        {
          "internalType": "address",
          "name": "",
          "type": "address"
        }
      ],
      "name": "voters",
      "outputs": [
        {
          "internalType": "bool",
          "name": "isRegistered",
          "type": "bool"
        },
        {
          "internalType": "bool",
          "name": "hasVoted",
          "type": "bool"
        },
        {
          "internalType": "uint256",
          "name": "votedFor",
          "type": "uint256"
        }
      ],
      "stateMutability": "view",
      "type": "function"
    },
    {
      "inputs": [],
      "name": "votingEnd",
      "outputs": [
        {
          "internalType": "uint256",
          "name": "",
          "type": "uint256"
        }
      ],
      "stateMutability": "view",
      "type": "function"
    },
    {
      "inputs": [],
      "name": "votingStart",
      "outputs": [
        {
          "internalType": "uint256",
          "name": "",
          "type": "uint256"
        }
      ],
      "stateMutability": "view",
      "type": "function"
    }
  ],
  "bytecode": "0x6080604052650246139ca80060005534801561001a57600080fd5b5033600160006101000a81548173ffffffffffffffffffffffffffffffffffffffff021916908373ffffffffffffffffffffffffffffffffffffffff160217905550611e508061006b6000396000f3fe608060405234801561001057600080fd5b50600436106101585760003560e01c80638e7ea5b2116100c3578063c78f19f91161007c578063c78f19f9146103af578063caaea3e4146103cd578063da9d5c92146103e9578063ecb617d914610419578063f851a44014610423578063fa7f1bae1461044157610158565b80638e7ea5b2146102fb5780639a0e7d6614610319578063a3ec138d14610337578063ae9f2ac214610369578063b80777ea14610387578063c3403ddf146103a557610158565b80633eb76b9c116101155780633eb76b9c146102375780634b11e7a0146102535780634d3f12b5146102715780636407e0d41461028f57806368797beb146102ad57806385a38635146102dd57610158565b80630d15fd771461015d578063101158af1461017b5780631859df65146101995780632bc4a6e7146101b75780633477ee2e146101d557806335b8e82014610206575b600080fd5b61016561045f565b604051610172919061119d565b60405180910390f35b610183610465565b604051610190919061119d565b60405180910390f35b6101a161046b565b6040516101ae919061119d565b60405180910390f35b6101bf610478565b6040516101cc91906112a8565b60405180910390f35b6101ef60048036038101906101ea919061130a565b610506565b6040516101fd9291906113d0565b60405180910390f35b610220600480360381019061021b919061130a565b6105c2565b60405161022e9291906113d0565b60405180910390f35b610251600480360381019061024c919061130a565b6106ed565b005b61025b61099a565b604051610268919061119d565b60405180910390f35b6102796109a4565b604051610286919061141b565b60405180910390f35b6102976109b7565b6040516102a4919061119d565b60405180910390f35b6102c760048036038101906102c29190611462565b6109bd565b6040516102d4919061141b565b60405180910390f35b6102e5610a16565b6040516102f2919061119d565b60405180910390f35b610303610a1c565b604051610310919061148f565b60405180910390f35b610321610b53565b60405161032e919061119d565b60405180910390f35b610351600480360381019061034c9190611462565b610b5d565b604051610360939291906114b1565b60405180910390f35b610371610ba1565b60405161037e919061119d565b60405180910390f35b61038f610bab565b60405161039c919061119d565b60405180910390f35b6103ad610bb1565b005b6103b7610cec565b6040516103c4919061119d565b60405180910390f35b6103e760048036038101906103e29190611703565b610cf2565b005b61040360048036038101906103fe9190611462565b610ebd565b604051610410919061119d565b60405180910390f35b610421610f09565b005b61042b6110a8565b6040516104389190611795565b60405180910390f35b6104496110ce565b604051610456919061141b565b60405180910390f35b60085481565b60045481565b6000600380549050905090565b606060098054806020026020016040519081016040528092919081815260200182805480156104fc57602002820191906000526020600020905b8160009054906101000a900473ffffffffffffffffffffffffffffffffffffffff1673ffffffffffffffffffffffffffffffffffffffff16815260200190600101908083116104b2575b5050505050905090565b6003818154811061051657600080fd5b9060005260206000209060020201600091509050806000018054610539906117df565b80601f0160208091040260200160405190810160405280929190818152602001828054610565906117df565b80156105b25780601f10610587576101008083540402835291602001916105b2565b820191906000526020600020905b81548152906001019060200180831161059557829003601f168201915b5050505050908060010154905082565b60606000600380549050831061060d576040517f08c379a00000000000000000000000000000000000000000000000000000000081526004016106049061185d565b60405180910390fd5b600383815481106106215761062061187d565b5b9060005260206000209060020201600001600384815481106106465761064561187d565b5b906000526020600020906002020160010154818054610664906117df565b80601f0160208091040260200160405190810160405280929190818152602001828054610690906117df565b80156106dd5780601f106106b2576101008083540402835291602001916106dd565b820191906000526020600020905b8154815290600101906020018083116106c057829003601f168201915b5050505050915091509150915091565b600760009054906101000a900460ff1661073c576040517f08c379a0000000000000000000000000000000000000000000000000000000008152600401610733906118f8565b60405180910390fd5b600260003373ffffffffffffffffffffffffffffffffffffffff1673ffffffffffffffffffffffffffffffffffffffff16815260200190815260200160002060000160009054906101000a900460ff166107cb576040517f08c379a00000000000000000000000000000000000000000000000000000000081526004016107c290611964565b60405180910390fd5b600260003373ffffffffffffffffffffffffffffffffffffffff1673ffffffffffffffffffffffffffffffffffffffff16815260200190815260200160002060000160019054906101000a900460ff161561085b576040517f08c379a0000000000000000000000000000000000000000000000000000000008152600401610852906119d0565b60405180910390fd5b60038054905081106108a2576040517f08c379a00000000000000000000000000000000000000000000000000000000081526004016108999061185d565b60405180910390fd5b6001600260003373ffffffffffffffffffffffffffffffffffffffff1673ffffffffffffffffffffffffffffffffffffffff16815260200190815260200160002060000160016101000a81548160ff02191690831515021790555080600260003373ffffffffffffffffffffffffffffffffffffffff1673ffffffffffffffffffffffffffffffffffffffff16815260200190815260200160002060010181905550600381815481106109585761095761187d565b5b9060005260206000209060020201600101600081548092919061097a90611a1f565b91905055506008600081548092919061099290611a1f565b919050555050565b6000600454905090565b600760019054906101000a900460ff1681565b60065481565b6000600260008373ffffffffffffffffffffffffffffffffffffffff1673ffffffffffffffffffffffffffffffffffffffff16815260200190815260200160002060000160019054906101000a900460ff169050919050565b60055481565b606060008060005b600380549050811015610a9d578260038281548110610a4657610a4561187d565b5b9060005260206000209060020201600101541115610a8a5760038181548110610a7257610a7161187d565b5b90600052602060002090600202016001015492508091505b8080610a9590611a1f565b915050610a24565b5060038181548110610ab257610ab161187d565b5b90600052602060002090600202016000018054610ace906117df565b80601f0160208091040260200160405190810160405280929190818152602001828054610afa906117df565b8015610b475780601f10610b1c57610100808354040283529160200191610b47565b820191906000526020600020905b815481529060010190602001808311610b2a57829003601f168201915b50505050509250505090565b6000600854905090565b60026020528060005260406000206000915090508060000160009054906101000a900460ff16908060000160019054906101000a900460ff16908060010154905083565b6000600554905090565b600a5481565b600160009054906101000a900473ffffffffffffffffffffffffffffffffffffffff1673ffffffffffffffffffffffffffffffffffffffff163373ffffffffffffffffffffffffffffffffffffffff1614610c41576040517f08c379a0000000000000000000000000000000000000000000000000000000008152600401610c3890611ada565b60405180910390fd5b600554600a541015610c88576040517f08c379a0000000000000000000000000000000000000000000000000000000008152600401610c7f90611b46565b60405180910390fd5b6006546008541015610ccf576040517f08c379a0000000000000000000000000000000000000000000000000000000008152600401610cc690611bb2565b60405180910390fd5b6000600760006101000a81548160ff021916908315150217905550565b60005481565b600760019054906101000a900460ff1615610d42576040517f08c379a0000000000000000000000000000000000000000000000000000000008152600401610d3990611c6a565b60405180910390fd5b6000845111610d86576040517f08c379a0000000000000000000000000000000000000000000000000000000008152600401610d7d90611cfc565b60405180910390fd5b818310610dc8576040517f08c379a0000000000000000000000000000000000000000000000000000000008152600401610dbf90611d8e565b60405180910390fd5b60005b8451811015610e6b5760036040518060400160405280878481518110610df457610df361187d565b5b60200260200101518152602001600081525090806001815401808255809150506001900390600052602060002090600202016000909190919091506000820151816000019080519060200190610e4b9291906110e1565b506020820151816001015550508080610e6390611a1f565b915050610dcb565b508260048190555081600581905550806006819055506001600760006101000a81548160ff0219169083151502179055506001600760016101000a81548160ff02191690831515021790555050505050565b6000600260008373ffffffffffffffffffffffffffffffffffffffff1673ffffffffffffffffffffffffffffffffffffffff168152602001908152602001600020600101549050919050565b600760009054906101000a900460ff16610f58576040517f08c379a0000000000000000000000000000000000000000000000000000000008152600401610f4f906118f8565b60405180910390fd5b600260003373ffffffffffffffffffffffffffffffffffffffff1673ffffffffffffffffffffffffffffffffffffffff16815260200190815260200160002060000160009054906101000a900460ff1615610fe8576040517f08c379a0000000000000000000000000000000000000000000000000000000008152600401610fdf90611dfa565b60405180910390fd5b6001600260003373ffffffffffffffffffffffffffffffffffffffff1673ffffffffffffffffffffffffffffffffffffffff16815260200190815260200160002060000160006101000a81548160ff0219169083151502179055506009339080600181540180825580915050600190039060005260206000200160009091909190916101000a81548173ffffffffffffffffffffffffffffffffffffffff021916908373ffffffffffffffffffffffffffffffffffffffff160217905550565b600160009054906101000a900473ffffffffffffffffffffffffffffffffffffffff1681565b600760009054906101000a900460ff1681565b8280546110ed906117df565b90600052602060002090601f01602090048101928261110f5760008555611156565b82601f1061112857805160ff1916838001178555611156565b82800160010185558215611156579182015b8281111561115557825182559160200191906001019061113a565b5b5090506111639190611167565b5090565b5b80821115611180576000816000905550600101611168565b5090565b6000819050919050565b61119781611184565b82525050565b60006020820190506111b2600083018461118e565b92915050565b600081519050919050565b600082825260208201905092915050565b6000819050602082019050919050565b600073ffffffffffffffffffffffffffffffffffffffff82169050919050565b600061120f826111e4565b9050919050565b61121f81611204565b82525050565b60006112318383611216565b60208301905092915050565b6000602082019050919050565b6000611255826111b8565b61125f81856111c3565b935061126a836111d4565b8060005b8381101561129b5781516112828882611225565b975061128d8361123d565b92505060018101905061126e565b5085935050505092915050565b600060208201905081810360008301526112c2818461124a565b905092915050565b6000604051905090565b600080fd5b600080fd5b6112e781611184565b81146112f257600080fd5b50565b600081359050611304816112de565b92915050565b6000602082840312156113205761131f6112d4565b5b600061132e848285016112f5565b91505092915050565b600081519050919050565b600082825260208201905092915050565b60005b83811015611371578082015181840152602081019050611356565b83811115611380576000848401525b50505050565b6000601f19601f8301169050919050565b60006113a282611337565b6113ac8185611342565b93506113bc818560208601611353565b6113c581611386565b840191505092915050565b600060408201905081810360008301526113ea8185611397565b90506113f9602083018461118e565b9392505050565b60008115159050919050565b61141581611400565b82525050565b6000602082019050611430600083018461140c565b92915050565b61143f81611204565b811461144a57600080fd5b50565b60008135905061145c81611436565b92915050565b600060208284031215611478576114776112d4565b5b60006114868482850161144d565b91505092915050565b600060208201905081810360008301526114a98184611397565b905092915050565b60006060820190506114c6600083018661140c565b6114d3602083018561140c565b6114e0604083018461118e565b949350505050565b600080fd5b7f4e487b7100000000000000000000000000000000000000000000000000000000600052604160045260246000fd5b61152582611386565b810181811067ffffffffffffffff82111715611544576115436114ed565b5b80604052505050565b60006115576112ca565b9050611563828261151c565b919050565b600067ffffffffffffffff821115611583576115826114ed565b5b602082029050602081019050919050565b600080fd5b600080fd5b600067ffffffffffffffff8211156115b9576115b86114ed565b5b6115c282611386565b9050602081019050919050565b82818337600083830152505050565b60006115f16115ec8461159e565b61154d565b90508281526020810184848401111561160d5761160c611599565b5b6116188482856115cf565b509392505050565b600082601f830112611635576116346114e8565b5b81356116458482602086016115de565b91505092915050565b600061166161165c84611568565b61154d565b9050808382526020820190506020840283018581111561168457611683611594565b5b835b818110156116cb57803567ffffffffffffffff8111156116a9576116a86114e8565b5b8086016116b68982611620565b85526020850194505050602081019050611686565b5050509392505050565b600082601f8301126116ea576116e96114e8565b5b81356116fa84826020860161164e565b91505092915050565b6000806000806080858703121561171d5761171c6112d4565b5b600085013567ffffffffffffffff81111561173b5761173a6112d9565b5b611747878288016116d5565b9450506020611758878288016112f5565b9350506040611769878288016112f5565b925050606061177a878288016112f5565b91505092959194509250565b61178f81611204565b82525050565b60006020820190506117aa6000830184611786565b92915050565b7f4e487b7100000000000000000000000000000000000000000000000000000000600052602260045260246000fd5b600060028204905060018216806117f757607f821691505b6020821081141561180b5761180a6117b0565b5b50919050565b7f496e76616c69642063616e64696461746520696e646578000000000000000000600082015250565b6000611847601783611342565b915061185282611811565b602082019050919050565b600060208201905081810360008301526118768161183a565b9050919050565b7f4e487b7100000000000000000000000000000000000000000000000000000000600052603260045260246000fd5b7f566f74696e6720697320636c6f73656400000000000000000000000000000000600082015250565b60006118e2601083611342565b91506118ed826118ac565b602082019050919050565b60006020820190508181036000830152611911816118d5565b9050919050565b7f566f746572206973206e6f742072656769737465726564000000000000000000600082015250565b600061194e601783611342565b915061195982611918565b602082019050919050565b6000602082019050818103600083015261197d81611941565b9050919050565b7f566f7465722068617320616c726561647920766f746564000000000000000000600082015250565b60006119ba601783611342565b91506119c582611984565b602082019050919050565b600060208201905081810360008301526119e9816119ad565b9050919050565b7f4e487b7100000000000000000000000000000000000000000000000000000000600052601160045260246000fd5b6000611a2a82611184565b91507fffffffffffffffffffffffffffffffffffffffffffffffffffffffffffffffff821415611a5d57611a5c6119f0565b5b600182019050919050565b7f536f727279204f6e6c792041646d696e6973747261746f722063616e2070657260008201527f666f726d2074686973206f7065726174696f6e00000000000000000000000000602082015250565b6000611ac4603383611342565b9150611acf82611a68565b604082019050919050565b60006020820190508181036000830152611af381611ab7565b9050919050565b7f566f74696e6720686173206e6f7420656e646564207965740000000000000000600082015250565b6000611b30601883611342565b9150611b3b82611afa565b602082019050919050565b60006020820190508181036000830152611b5f81611b23565b9050919050565b7f4e6f7420656e6f75676820766f74657300000000000000000000000000000000600082015250565b6000611b9c601083611342565b9150611ba782611b66565b602082019050919050565b60006020820190508181036000830152611bcb81611b8f565b9050919050565b7f636f6e74657374616e74732068617320616c7265616479206265656e2061646460008201527f656420616e642061646d696e206861736e2774206465636c61726564206e657760208201527f20656c656374696f6e0000000000000000000000000000000000000000000000604082015250565b6000611c54604983611342565b9150611c5f82611bd2565b606082019050919050565b60006020820190508181036000830152611c8381611c47565b9050919050565b7f5468657265206d757374206265206174206c65617374206f6e652063616e646960008201527f6461746500000000000000000000000000000000000000000000000000000000602082015250565b6000611ce6602483611342565b9150611cf182611c8a565b604082019050919050565b60006020820190508181036000830152611d1581611cd9565b9050919050565b7f566f74696e6720656e642074696d65206d75737420626520616674657220766f60008201527f74696e672073746172742074696d650000000000000000000000000000000000602082015250565b6000611d78602f83611342565b9150611d8382611d1c565b604082019050919050565b60006020820190508181036000830152611da781611d6b565b9050919050565b7f566f7465722068617320616c7265616479207265676973746572656400000000600082015250565b6000611de4601c83611342565b9150611def82611dae565b602082019050919050565b60006020820190508181036000830152611e1381611dd7565b905091905056fea2646970667358221220ca25bab36af0b20197d9246a0a5e04f2dd5cd64f7998459e4748d53918e43d9064736f6c63430008090033",
  "linkReferences": {},
  "deployedLinkReferences": {}
}